:020000040800F2
:1000000000500020ED2800080928000811280008E9
:1000100019280008212800082928000800000000ED
:10002000000000000000000000000000312800086F
:100030003D28000800000000492800085528000855
:100040003529000835290008352900083529000818
:100050003529000835290008352900083529000808
:1000600035290008352900083529000835290008F8
:1000700035290008352900083529000835290008E8
:1000800035290008352900083529000835290008D8
:1000900035290008352900083529000835290008C8
:1000A00035290008352900083529000835290008B8
:1000B00035290008352900083529000835290008A8
:1000C0003529000835290008352900083529000898
:1000D000352900086128000835290008352900085D
:1000E00035290008352900083529000800000000DE
:1000F0000000000000000000000000000000000000
:0C01000000000000000000005FF808F1A3
:1001100010B5054C237833B9044B13B10448AFF341
:1001200000800123237010BD880000200000000023
:100130001872000808B5034B1BB103490348AFF31D
:10014000008008BD000000008C000020187200082C
:10015000034613F8012B002AFBD1181A0138704707
:1001600081F0004102E000BF83F0004330B54FEA68
:1001700041044FEA430594EA050F08BF90EA020FD5
:100180001FBF54EA000C55EA020C7FEA645C7FEA68
:10019000655C00F0E2804FEA5454D4EB5555B8BF8B
:1001A0006D420CDD2C4480EA020281EA030382EAFC
:1001B000000083EA010180EA020281EA0303362D8E
:1001C00088BF30BD11F0004F4FEA01314FF4801C61
:1001D0004CEA113102D0404261EB410113F0004F73
:1001E0004FEA03334CEA133302D0524263EB43032A
:1001F00094EA050F00F0A780A4F10104D5F1200EC8
:100200000DDB02FA0EFC22FA05F2801841F1000122
:1002100003FA0EF2801843FA05F359410EE0A5F1F6
:1002200020050EF1200E012A03FA0EFC28BF4CF027
:10023000020C43FA05F3C01851EBE37101F00045DD
:1002400007D54FF0000EDCF1000C7EEB00006EEBEA
:100250000101B1F5801F1BD3B1F5001F0CD3490874
:100260005FEA30004FEA3C0C04F101044FEA4452CB
:1002700012F5800F80F09A80BCF1004F08BF5FEA52
:10028000500C50F1000041EB045141EA050130BD32
:100290005FEA4C0C404141EB0101013C28BFB1F544
:1002A000801FE9D291F0000F04BF01460020B1FA8F
:1002B00081F308BF2033A3F10B03B3F120020CDA62
:1002C0000C3208DD02F1140CC2F10C0201FA0CF040
:1002D00021FA02F10CE002F11402D8BFC2F1200CA5
:1002E00001FA02F120FA0CFCDCBF41EA0C0190405B
:1002F000E41AA2BF01EB0451294330BD6FEA0404A4
:100300001F3C1CDA0C340EDC04F11404C4F120028E
:1003100020FA04F001FA02F340EA030021FA04F3A0
:1003200045EA030130BDC4F10C04C4F1200220FAF7
:1003300002F001FA04F340EA0300294630BD21FA35
:1003400004F0294630BD94F0000F83F4801306BFFB
:1003500081F480110134013D4EE77FEA645C18BFEF
:100360007FEA655C29D094EA050F08BF90EA020F86
:1003700005D054EA000C04BF1946104630BD91EA7E
:10038000030F1EBF0021002030BD5FEA545C05D181
:100390004000494128BF41F0004130BD14F58004C0
:1003A0003CBF01F5801130BD01F0004545F0FE4134
:1003B00041F470014FF0000030BD7FEA645C1ABF69
:1003C000194610467FEA655C1CBF0B46024650EAA0
:1003D000013406BF52EA033591EA030F41F40021CC
:1003E00030BD00BF90F0000F04BF0021704730B552
:1003F0004FF4806404F132044FF000054FF0000127
:1004000050E700BF90F0000F04BF0021704730B5E7
:100410004FF4806404F1320410F0004548BF4042BC
:100420004FF000013EE700BF42004FEAE2014FEA11
:1004300031014FEA02701FBF12F07F4393F07F4FEC
:1004400081F06051704732F07F4208BF704793F0EF
:100450007F4F04BF41F40021704730B54FF4607402
:1004600001F0004521F000411CE700BF50EA010205
:1004700008BF704730B54FF000050AE050EA0102AE
:1004800008BF704730B511F0004502D5404261EB1E
:1004900041014FF4806404F132045FEA915C3FF45F
:1004A000D8AE4FF003025FEADC0C18BF03325FEAFC
:1004B000DC0C18BF033202EBDC02C2F1200300FAAD
:1004C00003FC20FA02F001FA03FE40EA0E0021FAD2
:1004D00002F11444BDE600BF70B54FF0FF0C4CF4C0
:1004E000E06C1CEA11541DBF1CEA135594EA0C0F72
:1004F00095EA0C0F00F0DEF82C4481EA030621EAAD
:100500004C5123EA4C5350EA013518BF52EA0335E7
:1005100041F4801143F4801338D0A0FB02CE4FF099
:100520000005E1FB02E506F00042E0FB03E54FF0C9
:100530000006E1FB03569CF0000F18BF4EF0010EC1
:10054000A4F1FF04B6F5007F64F5407404D25FEABD
:100550004E0E6D4146EB060642EAC62141EA555170
:100560004FEAC52040EA5E504FEACE2EB4F1FD0CB2
:1005700088BFBCF5E06F1ED8BEF1004F08BF5FEA30
:10058000500E50F1000041EB045170BD06F00046E2
:1005900046EA010140EA020081EA0301B4EB5C048F
:1005A000C2BFD4EB0C0541EA045170BD41F4801187
:1005B0004FF0000E013C00F3AB8014F1360FDEBFAC
:1005C000002001F0004170BDC4F10004203C35DA88
:1005D0000C341BDC04F11404C4F1200500FA05F30B
:1005E00020FA04F001FA05F240EA020001F00042AC
:1005F00021F0004110EBD37021FA04F642EB060122
:100600005EEA430E08BF20EAD37070BDC4F10C044B
:10061000C4F1200500FA04F320FA05F001FA04F20F
:1006200040EA020001F0004110EBD37041F10001FB
:100630005EEA430E08BF20EAD37070BDC4F1200506
:1006400000FA05F24EEA020E20FA04F301FA05F26E
:1006500043EA020321FA04F001F0004121FA04F216
:1006600020EA020000EBD3705EEA430E08BF20EAE6
:10067000D37070BD94F0000F0FD101F00046400020
:1006800041EB010111F4801F08BF013CF7D041EAA2
:10069000060195F0000F18BF704703F000465200A6
:1006A00043EB030313F4801F08BF013DF7D043EA77
:1006B0000603704794EA0C0F0CEA135518BF95EA2D
:1006C0000C0F0CD050EA410618BF52EA4306D1D1B4
:1006D00081EA030101F000414FF0000070BD50EAD3
:1006E000410606BF1046194652EA430619D094EA5D
:1006F0000C0F02D150EA013613D195EA0C0F05D147
:1007000052EA03361CBF104619460AD181EA03019A
:1007100001F0004141F0FE4141F470014FF0000052
:1007200070BD41F0FE4141F4780170BD70B54FF0ED
:10073000FF0C4CF4E06C1CEA11541DBF1CEA13556D
:1007400094EA0C0F95EA0C0F00F0A7F8A4EB05044F
:1007500081EA030E52EA03354FEA013100F0888046
:100760004FEA03334FF0805545EA131343EA12630F
:100770004FEA022245EA111545EA10654FEA0026C4
:100780000EF000419D4208BF964244F1FD0404F57D
:10079000407402D25B084FEA3202B61A65EB0305D9
:1007A0005B084FEA32024FF480104FF4002CB6EB96
:1007B000020E75EB030E22BFB61A754640EA0C0016
:1007C0005B084FEA3202B6EB020E75EB030E22BF56
:1007D000B61A754640EA5C005B084FEA3202B6EB97
:1007E000020E75EB030E22BFB61A754640EA9C0056
:1007F0005B084FEA3202B6EB020E75EB030E22BF26
:10080000B61A754640EADC0055EA060E18D04FEAE3
:10081000051545EA16754FEA06164FEAC30343EA83
:1008200052734FEAC2025FEA1C1CC0D111F4801F50
:100830000BD141EA00014FF000004FF0004CB6E749
:1008400011F4801F04BF01430020B4F1FD0C88BFE8
:10085000BCF5E06F3FF6AFAEB5EB030C04BFB6EBF3
:10086000020C5FEA500C50F1000041EB045170BDE6
:100870000EF0004E4EEA113114EB5C04C2BFD4EB13
:100880000C0541EA045170BD41F480114FF0000E97
:10089000013C90E645EA060E8DE60CEA135594EA13
:1008A0000C0F08BF95EA0C0F3FF43BAF94EA0C0F16
:1008B0000AD150EA01347FF434AF95EA0C0F7FF48B
:1008C00025AF104619462CE795EA0C0F06D152EADF
:1008D00003353FF4FDAE1046194622E750EA4106C3
:1008E00018BF52EA43067FF4C5AE50EA41047FF4D4
:1008F0000DAF52EA43057FF4EBAE12E74FF0FF3C39
:1009000006E000BF4FF0010C02E000BF4FF0010C09
:100910004DF804CD4FEA410C7FEA6C5C4FEA430C82
:1009200018BF7FEA6C5C1BD001B050EA410C0CBFD1
:1009300052EA430C91EA030F02BF90EA020F002033
:10094000704710F1000F91EA030F58BF994208BF9A
:1009500090422CBFD8176FEAE37040F00100704757
:100960004FEA410C7FEA6C5C02D150EA013C07D1AE
:100970004FEA430C7FEA6C5CD6D152EA033CD3D0F9
:100980005DF8040B704700BF8446104662468C46F3
:100990001946634600E000BF01B5FFF7B7FF002826
:1009A00048BF10F1000F01BD4DF808EDFFF7F4FF4F
:1009B0000CBF012000205DF808FB00BF4DF808EDDA
:1009C000FFF7EAFF34BF012000205DF808FB00BFFD
:1009D0004DF808EDFFF7E0FF94BF012000205DF81F
:1009E00008FB00BF4DF808EDFFF7CEFF94BF0120D4
:1009F00000205DF808FB00BF4DF808EDFFF7C4FFCD
:100A000034BF012000205DF808FB00BF4FEA410C15
:100A10007FEA6C5C02D150EA013C0AD14FEA430CF8
:100A20007FEA6C5C02D152EA033C02D14FF0000035
:100A300070474FF0010070474FEA410212F5001273
:100A400015D211D56FF47873B3EB625212D94FEA15
:100A5000C12343F0004343EA505311F0004F23FAFF
:100A600002F018BF404270474FF00000704750EA54
:100A7000013005D111F0004008BF6FF00040704711
:100A80004FF00000704700BF4FEA4102B2F1E0436F
:100A900024BFB3F5001CDCF1FE5C0DD901F0004C65
:100AA0004FEAC0024CEA5070B2F1004F40EB8300B5
:100AB00008BF20F00100704711F0804F21D113F1E1
:100AC0003872BCBF01F00040704741F480114FEA1A
:100AD0005252C2F11802C2F1200C10FA0CF320FAA3
:100AE00002F018BF40F001004FEAC1234FEAD323C0
:100AF00003FA0CFC40EA0C0023FA02F34FEA43032A
:100B0000CCE77FEA625307D150EA01331EBF4FF0B2
:100B1000FE4040F44000704701F0004040F0FE40CD
:100B200040F40000704700BF80F0004002E000BFCA
:100B300081F0004142001FBF5FEA410392EA030FC8
:100B40007FEA226C7FEA236C6AD04FEA1262D2EB12
:100B50001363C1BFD218414048404140B8BF5B4217
:100B6000192B88BF704710F0004F40F4000020F0B0
:100B70007F4018BF404211F0004F41F4000121F0C6
:100B80007F4118BF494292EA030F3FD0A2F1010210
:100B900041FA03FC10EB0C00C3F1200301FA03F14E
:100BA00000F0004302D5494260EB4000B0F5000F71
:100BB00013D3B0F1807F06D340084FEA310102F130
:100BC0000102FE2A51D2B1F1004F40EBC25008BFE2
:100BD00020F0010040EA03007047490040EB0000AC
:100BE000013A28BFB0F5000FEDD2B0FA80FCACF1AD
:100BF000080CB2EB0C0200FA0CF0AABF00EBC250DA
:100C000052421843BCBFD0401843704792F0000FC7
:100C100081F4000106BF80F400000132013BB5E71A
:100C20004FEA41037FEA226C18BF7FEA236C21D090
:100C300092EA030F04D092F0000F08BF08467047F5
:100C400090EA010F1CBF0020704712F07F4F04D1C3
:100C5000400028BF40F00040704712F100723CBFD6
:100C600000F50000704700F0004343F0FE4040F400
:100C7000000070477FEA226216BF08467FEA2363BE
:100C80000146420206BF5FEA412390EA010F40F4A9
:100C9000800070474FF0000304E000BF10F00043F5
:100CA00048BF40425FEA000C08BF704743F09643DC
:100CB00001464FF000001CE050EA010208BF7047F7
:100CC0004FF000030AE000BF50EA010208BF70477E
:100CD00011F0004302D5404261EB41015FEA010C93
:100CE00002BF84460146002043F0B64308BFA3F18B
:100CF0008053A3F50003BCFA8CF2083AA3EBC2536D
:100D000010DB01FA02FC634400FA02FCC2F120028B
:100D1000BCF1004F20FA02F243EB020008BF20F0C2
:100D20000100704702F1200201FA02FCC2F1200228
:100D300050EA4C0021FA02F243EB020008BF20EA1D
:100D4000DC7070474FF0FF0C1CEAD0521EBF1CEA4B
:100D5000D15392EA0C0F93EA0C0F6FD01A4480EA39
:100D6000010C400218BF5FEA41211ED04FF0006322
:100D700043EA501043EA5111A0FB01310CF000404E
:100D8000B1F5000F3EBF490041EAD3715B0040EA74
:100D9000010062F17F02FD2A1DD8B3F1004F40EB44
:100DA000C25008BF20F00100704790F0000F0CF017
:100DB000004C08BF49024CEA502040EA51207F3ADB
:100DC000C2BFD2F1FF0340EAC250704740F40000B6
:100DD0004FF00003013A5DDC12F1190FDCBF00F0A7
:100DE00000407047C2F10002410021FA02F1C2F155
:100DF000200200FA02FC5FEA310040F1000053EAF1
:100E00004C0308BF20EADC70704792F0000F00F03E
:100E1000004C02BF400010F4000F013AF9D040EA44
:100E20000C0093F0000F01F0004C02BF490011F4D8
:100E3000000F013BF9D041EA0C018FE70CEAD153D6
:100E400092EA0C0F18BF93EA0C0F0AD030F0004C56
:100E500018BF31F0004CD8D180EA010000F000400A
:100E6000704790F0000F17BF90F0004F084691F0C8
:100E7000000F91F0004F14D092EA0C0F01D1420202
:100E80000FD193EA0C0F03D14B0218BF084608D1CB
:100E900080EA010000F0004040F0FE4040F4000015
:100EA000704740F0FE4040F4400070474FF0FF0CA8
:100EB0001CEAD0521EBF1CEAD15392EA0C0F93EAEF
:100EC0000C0F69D0A2EB030280EA010C49024FEA41
:100ED000402037D04FF0805343EA111143EA1013FA
:100EE0000CF000408B4238BF5B0042F17D024FF4B2
:100EF000000C8B4224BF5B1A40EA0C00B3EB510F8D
:100F000024BFA3EB510340EA5C00B3EB910F24BF75
:100F1000A3EB910340EA9C00B3EBD10F24BFA3EBFA
:100F2000D10340EADC001B0118BF5FEA1C1CE0D1C2
:100F3000FD2A3FF650AF8B4240EBC25008BF20F075
:100F4000010070470CF0004C4CEA50207F32C2BFC9
:100F5000D2F1FF0340EAC250704740F400004FF066
:100F60000003013A37E792F0000F00F0004C02BF97
:100F7000400010F4000F013AF9D040EA0C0093F061
:100F8000000F01F0004C02BF490011F4000F013BBB
:100F9000F9D041EA0C0195E70CEAD15392EA0C0F23
:100FA00008D142027FF47DAF93EA0C0F7FF470AF5B
:100FB000084676E793EA0C0F04D14B023FF44CAF9E
:100FC00008466EE730F0004C18BF31F0004CCAD133
:100FD00030F000427FF45CAF31F000437FF43CAF6F
:100FE0005FE700BF4FF0FF3C06E000BF4FF0010C91
:100FF00002E000BF4FF0010C4DF804CD4FEA400273
:101000004FEA41037FEA226C18BF7FEA236C11D0BC
:1010100001B052EA530C18BF90EA010F58BFB2EB6F
:10102000030088BFC81738BF6FEAE17018BF40F0EF
:10103000010070477FEA226C02D15FEA402C05D1A3
:101040007FEA236CE4D15FEA412CE1D05DF8040B28
:10105000704700BF844608466146FFE70FB5FFF7BB
:10106000C9FF002848BF10F1000F0FBD4DF808ED73
:10107000FFF7F4FF0CBF012000205DF808FB00BF64
:101080004DF808EDFFF7EAFF34BF012000205DF8BE
:1010900008FB00BF4DF808EDFFF7E0FF94BF01200B
:1010A00000205DF808FB00BF4DF808EDFFF7D2FF08
:1010B00094BF012000205DF808FB00BF4DF808ED4B
:1010C000FFF7C8FF34BF012000205DF808FB00BF18
:1010D0004FEA4002B2F1FE4F0FD34FF09E03B3EB45
:1010E00012620DD94FEA002343F0004310F0004F85
:1010F00023FA02F018BF404270474FF000007047DB
:1011000012F1610F01D1420205D110F0004008BF79
:101110006FF0004070474FF00000704742000ED261
:10112000B2F1FE4F0BD34FF09E03B3EB126209D422
:101130004FEA002343F0004323FA02F070474FF0D8
:101140000000704712F1610F01D1420202D14FF04D
:10115000FF3070474FF00000704700BF80B483B08D
:1011600000AF7860064B1B780533DAB2044B1A7077
:10117000044B01221A7000BF0C37BD4680BC70477B
:10118000C5020020C602002080B483B000AF7860A2
:1011900000BF0C37BD4680BC7047000080B582B0F0
:1011A00000AF78607868FEF7D3FF03469BB21A461B
:1011B0007968034804F0A6FA00BF0837BD4680BD31
:1011C0009401002090B583B000AF224B1B685B6A8E
:1011D0007B60214B1B687A689A4217D97868FFF7C1
:1011E00059FD04461C4B1B681846FFF753FD034688
:1011F00019462046FFF79CFC034618491846FFF79E
:1012000055FE03461A46164B1A601BE0124B1B682C
:101210001846FFF73FFD04467868FFF73BFD03469D
:1012200019462046FFF784FC034619460D48FFF790
:101230007FFC034609491846FFF738FE03461A4665
:10124000074B1A60044A7B68136000BF0C37BD4629
:1012500090BD00BF04010020E80100200050C347FA
:10126000E001002000FF7F4780B500AF194B1B78DD
:10127000012B2CD1174B00221A70174B1B78752BA2
:101280001DD1154B5B78303B4FF47A7203FB02F2B1
:10129000114B9B78303B642101FB03F3D1180E4BBB
:1012A000DB78A3F1300213469B0013445B00CA189D
:1012B000094B1B79303B13441A46084B1A60052230
:1012C0000549074804F053FA064B01221A7000BF83
:1012D00080BD00BFC6020020C00200201800002010
:1012E00094010020DC01002080B500AF604B1B683A
:1012F00040F21A42934240F295805E4B1B68B3F570
:10130000FA6F1BD85A4B1B681846FFF7C3FC0246FE
:10131000594B1B6819461046FFF70CFC03461A464A
:10132000564B1B6819461046FFF702FC0346184649
:10133000FFF7F4FE03464F4A136003E04D4B4FF4B2
:10134000FA621A604E4B1B68B3F5FA6F1BD8484B14
:101350001B681846FFF79EFC0246474B1B68194660
:101360001046FFF7E7FB03461A46444B1B68194635
:101370001046FFF7DFFB03461846FFF7CFFE034694
:101380003F4A136003E03E4B4FF4FA621A603D4B54
:101390001B68B3F5FA6F1BD8354B1B681846FFF76F
:1013A00079FC0246344B1B6819461046FFF7C0FB18
:1013B00003461A46314B1B6819461046FFF7BAFB25
:1013C00003461846FFF7AAFE03462E4A136003E0C1
:1013D0002C4B4FF4FA621A602B4B1B68B3F5FA6F73
:1013E0001BD8234B1B681846FFF754FC0246224BC0
:1013F0001B6819461046FFF79BFB03461A461F4B16
:101400001B6819461046FFF793FB03461846FFF783
:1014100085FE03461C4A136014E01B4B4FF4FA622E
:101420001A600FE0134B40F21A421A60144B40F25C
:101430001A421A60134B40F21A421A60124B40F2E1
:101440001A421A60114B1B68094A12685A630F4B03
:101450001B68074A12689A630C4B1B68044A12689F
:10146000DA630A4B1B68024A12681A6400BF80BD27
:10147000180000202C02002078020020900200209A
:101480003002002034020020380200204C010020ED
:1014900080B584B000AF3F4B1B6840F27E42934260
:1014A00040F2F6813C4B1B684FF000011846FFF7F5
:1014B00005FE0346002B11D0374B1B681846FEF77C
:1014C000B3FF4FF00002354BFEF750FE02460B46CD
:1014D00010461946FFF7B0FA034610E02E4B1B6882
:1014E0001846FEF7A1FF4FF000022C4BFEF73CFE22
:1014F00002460B4610461946FFF79EFA0346FB606C
:10150000274B1B684FF000011846FFF7D7FD034635
:10151000002B11D0224B1B681846FEF785FF4FF0B9
:1015200000021E4BFEF722FE02460B4610461946ED
:10153000FFF782FA034610E0194B1B681846FEF7C6
:1015400073FF4FF00002154BFEF70EFE02460B46EE
:1015500010461946FFF770FA0346BB60114B1B6833
:101560004FF000011846FFF7A9FD0346002B1BD0E2
:101570000C4B1B681846FEF757FF4FF00002074B55
:10158000FEF7F4FD02460B4610461946FFF754FAE3
:1015900003461AE018000020540200200000E03F3B
:1015A000580200205C020020904B1B681846FEF792
:1015B0003BFF4FF000028E4BFEF7D6FD02460B4676
:1015C00010461946FFF738FA03467B60F868FFF7C4
:1015D00065FB0246874B1B6819461046FFF7A8FAC1
:1015E00003461A46844B1A60B868FFF757FB024659
:1015F000824B1B6819461046FFF79AFA03461A46B3
:101600007F4B1A607868FFF749FB02467D4B1B68E9
:1016100019461046FFF78CFA03461A467A4B1A60B1
:101620007A4B1B68744A126811461846FFF78AFB0A
:1016300003461A46764B1A60764B1B68704A12684E
:1016400011461846FFF77EFB03461A46724B1A6096
:10165000724B1B686C4A126811461846FFF772FB02
:1016600003461A466E4B1A606E4B1B68624A12683C
:1016700011461846FFF766FB03461A466A4B1B687D
:1016800019461046FFF756FA03461A46664B1A608B
:10169000664B1B685A4A126811461846FFF752FB00
:1016A00003461A46624B1B6819461046FFF742FA7A
:1016B00003461A465E4B1A605E4B1B68524A12681C
:1016C00011461846FFF73EFB03461A465A4B1B6865
:1016D00019461046FFF72EFA03461A46564B1A6073
:1016E000454B1B68554A126811461846FFF720FA09
:1016F00003461A46524B1B6819461046FFF7D6FBA5
:1017000003461A46474B1B6819461046FFF71AFB5B
:1017100003461A464B4B1A60394B1B684A4A1268FB
:1017200011461846FFF704FA03461A46444B1B6855
:1017300019461046FFF7BAFB03461A463B4B1B6897
:1017400019461046FFF7FEFA03461A463F4B1A6049
:101750002D4B1B683E4A126811461846FFF7E8F900
:1017600003461A46364B1B6819461046FFF79EFB88
:1017700003461A462F4B1B6819461046FFF7E2FA3C
:1017800003461A46334B1A60214B1B68264A1268DF
:1017900011461846FFF7CEF903461A46294B1B6837
:1017A00019461046FFF7C6F903461A462A4B1A6037
:1017B000194B1B681E4A126811461846FFF7BAF902
:1017C00003461A46214B1B6819461046FFF7B2F92B
:1017D00003461A46214B1A60114B1B68164A1268C1
:1017E00011461846FFF7A6F9034639E05C020020CF
:1017F0000000E03F6C0200208C02002070020020FC
:10180000A402002074020020BC020020000000207E
:101810007C0200200800002094020020100000201C
:10182000AC02002004000020800200200C000020F8
:101830009802002014000020B0020020880200203E
:10184000E001002084020020A00200209C02002071
:10185000B8020020B402002078020020900200208C
:101860001A462B4B1B6819461046FFF763F90346CF
:101870001A46284B1A60284B1B68284A1360284BCD
:101880001B68284A1360284B1B68284A13603BE0FA
:10189000214B4FF000021A60214B4FF000021A60FA
:1018A000214B4FF000021A601C4B4FF000021A60EF
:1018B0001C4B4FF000021A601C4B4FF000021A60E4
:1018C0001B4B4FF000021A601A4B4FF000021A60D7
:1018D000194B4FF000021A60184B4FF000021A60CB
:1018E000174B4FF000021A60164B4FF000021A60BF
:1018F000154B4FF000021A60144B4FF000021A60B3
:10190000034B4FF000021A6000BF1037BD4680BD88
:10191000B4020020A80200208C02002088020020CF
:10192000A4020020A0020020BC020020B802002077
:101930007C0200208002002084020020940200200B
:10194000980200209C020020AC020020B00200207F
:1019500080B58AB004AFF860B9607A603B604FF040
:10196000FF3302930623019307F110030093012331
:101970003B22D021F86801F0E7FD3B7C1B021AB244
:101980007B7C1BB213431AB2BB681A80BB7C1B0260
:101990001AB2FB7C1BB213431AB27B681A803B7DE0
:1019A0001B021AB27B7D1BB213431AB23B681A802A
:1019B00000BF1837BD4680BD80B588B004AF7860E1
:1019C00000BF4FF0FF3302930123019307F10F0390
:1019D000009301237522D021786801F0B5FD0346FC
:1019E000012BEED0FB7B682B3FD10023BB734FF064
:1019F000FF3302930123019307F10E0300930123A8
:101A00006B22D021786801F0A5FC0723BB734FF04F
:101A1000FF3302930123019307F10E030093012387
:101A20001922D021786801F095FC0023BB734FF098
:101A3000FF3302930123019307F10E030093012367
:101A40001C22D021786801F085FC0023BB734FF085
:101A5000FF3302930123019307F10E030093012347
:101A60001B22D021786801F075FC00BF1037BD46FD
:101A700080BD80B58AB004AFF860B9607A603B6021
:101A80004FF0FF3302930623019307F110030093F5
:101A900001234322D021F86801F056FD3B7C1B0254
:101AA0001AB27B7C1BB213431AB2BB681A80BB7C90
:101AB0001B021AB2FB7C1BB213431AB27B681A805A
:101AC0003B7D1B021AB27B7D1BB213431AB23B68EB
:101AD0001A8000BF1837BD4680BD0000000000001E
:101AE0002DE9F04389B000AFF860B9607A60544BDB
:101AF000B3F900301846FFF7D1F80346FB61514BAC
:101B0000B3F900301846FFF7C9F80346BB614E4BE6
:101B1000B3F900301846FFF7C1F803467B61B86996
:101B2000FEF782FC04460D467869FEF77DFC02460E
:101B30000B462046294605F00BF83DA3D3E90023C8
:101B4000FEF7CAFC02460B4610461946FEF79CFFFC
:101B50000246FB681A60FB6983F000431846FEF7F3
:101B600063FC04460D46B969B869FFF7EBF8034614
:101B70001E4679697869FFF7E5F80346194630464D
:101B8000FEF7D8FF03461846FEF74EFC02460B460A
:101B90001046194604F0DEFF02460B462046294651
:101BA00004F0D6FF22A3D3E90023FEF795FC0246FA
:101BB0000B4610461946FEF767FF0246BB681A60DF
:101BC0007B681B681846FEF72FFC04460D461F4B2A
:101BD000B3F900301846FEF715FC17A3D3E900232C
:101BE000FEF7A4FD02460B4690469946184B1B682B
:101BF0001846FEF719FC02460B4640464946FEF7DA
:101C00006BFC02460B4620462946FEF7AFFA024619
:101C10000B4610461946FEF737FF02467B681A60EE
:101C200000BF2437BD46BDE8F08300BFAFF300809E
:101C3000F8C1631ADCA54C40000000000060604061
:101C40003C0200203E02002040020020460200200C
:101C5000E001002080B586B000AF786000237B6192
:101C60003EE007F10E0307F1100207F11201786858
:101C7000FFF7FFFEB7F912301846FFF70FF80246DC
:101C80002A4B1B6819461046FEF754FF03461A46B6
:101C9000264B1A60B7F910301846FEF7FFFF0246D0
:101CA000234B1B6819461046FEF744FF03461A46AD
:101CB0001F4B1A60B7F90E301846FEF7EFFF0246C9
:101CC0001C4B1B6819461046FEF734FF03461A46A4
:101CD000184B1A60012000F091FE7B6901337B6193
:101CE0007B69B3F57A7FBCDB104B1B681249184641
:101CF000FFF7DCF803461A460C4B1A600C4B1B68C6
:101D00000D491846FFF7D2F803461A46084B1A60E9
:101D1000084B1B6808491846FFF7C8F803461A46DF
:101D2000044B1A6000BF1837BD4680BD600200201A
:101D3000640200206802002000007A4400000000D5
:101D4000B0B586B000AF78608D4BB3F9003018465F
:101D5000FEF7A4FF02468B4B1B6819461046FEF7A0
:101D6000E7FE03461846FFF7B3F903461AB2844B61
:101D70001A80854BB3F900301846FEF78FFF0246F4
:101D8000824B1B6819461046FEF7D2FE03461846E2
:101D9000FFF79EF903461AB27B4B1A807C4BB3F9CE
:101DA00000301846FEF77AFF02467A4B1B68194648
:101DB0001046FEF7BDFE03461846FFF789F90346B5
:101DC0001AB2734B1A806E4BB3F900301846FEF707
:101DD00019FB63A3D3E90023FEF7A8FC02460B46D8
:101DE00010461946FEF750FE03463B61664BB3F9B9
:101DF00000301846FEF706FB59A3D3E90023FEF78F
:101E000095FC02460B4610461946FEF73DFE03467A
:101E1000FB605F4BB3F900301846FEF7F3FA50A3AE
:101E2000D3E90023FEF782FC02460B461046194612
:101E3000FEF72AFE03467B61FFF7C4F9564B1B6889
:101E400039691846FEF77EFF03461A46534B1B6856
:101E500019461046FEF76EFE03461846FEF7E4FAF2
:101E600041A3D3E90023FEF737FB02460B46144695
:101E70001D464B4B1B681846FEF7D6FA3CA3D3E928
:101E80000023FEF729FB02460B4620462946FEF7B3
:101E90006DF902460B4610461946FEF7F5FD03465E
:101EA0003E4A13603C4B1B68F9681846FEF74AFF30
:101EB00003461A463B4B1B6819461046FEF73AFE8E
:101EC00003461846FEF7B0FA27A3D3E90023FEF72E
:101ED00003FB02460B4614461D46334B1B6818464F
:101EE000FEF7A2FA22A3D3E90023FEF7F5FA024691
:101EF0000B4620462946FEF739F902460B461046A6
:101F00001946FEF7C1FD0346264A13607B6923F09C
:101F100000431846FEF788FA17A3D3E90023FEF71B
:101F20004DFD0346002B02D04FF000037B611A4B9E
:101F30001B6879691846FEF705FF03461A461B4BD6
:101F40001B6819461046FEF7F5FD03461A46174B67
:101F50001A6000BF1837BD46B0BD00BFAFF30080A8
:101F600000000000006060405C8FC2F5285CEF3F1D
:101F70007B14AE47E17A943F9A9999999999A93F30
:101F8000420200206002002044020020640200207F
:101F90004602002068020020E001002054020020D8
:101FA00048020020580200204C0200205C02002061
:101FB000B0B582B002AF00F0BFFC00F0D7F800F07F
:101FC0007BFA00F04FFA00F0B3F900F017F900F0D7
:101FD0005DF900F041F94B48FFF7EEFC4948FFF787
:101FE00039FE494802F06EFD484B1B781A46484BB3
:101FF000134405221946474803F0B9FB0622464917
:10200000444803F07FFB0021444802F0FDFD042119
:10201000424802F0F9FD0821404802F0F5FD0C218C
:102020003E4802F0F1FD3D4B1B6840F21A425A63F4
:102030003A4B1B6840F21A429A63384B1B6840F2D5
:102040001A42DA63354B1B6840F21A421A64FFF7F2
:102050000BF9334B334A34492A48FFF779FC334BA9
:10206000334A34492748FFF704FD334A334934489B
:10207000FFF736FD2348FFF763FEFFF709FAFFF786
:1020800033F9304B1B78012B35D12F4B1B682F4A6E
:10209000126811461846FEF74DFD03461A462A4BB4
:1020A0001A60294B1B682A491846FFF707F80346B0
:1020B000002B20D0244B4FF000021A60254B1B68E8
:1020C0001846FFF705F80546234B1B681846FEF730
:1020D000FFFF0446214B1B681846FEF7F9FF034635
:1020E000019300942B461E4A40211E4804F06CF8D0
:1020F0001C48FFF753F81C4B1B684AF6AA221A60CB
:10210000A5E700BFA400002004010020C5020020B4
:10211000C002002094010020307200084C01002011
:10212000400200203E0200203C0200204602002027
:102130004402002042020020500200204C020020F5
:1021400048020020DC010020E4010020E001002022
:10215000CDCC4C3D54020020580200205C020020EF
:1021600038720008EC010020F800002080B590B023
:1021700000AF07F1180328220021184604F058F890
:102180003B1D00221A605A609A60DA601A610923C6
:10219000BB614FF48033FB6100233B620123BB62D0
:1021A00001233B6302237B634FF48033BB634FF413
:1021B000E013FB6307F11803184602F023F8034607
:1021C000002B01D000F0A6F90F237B600223BB6037
:1021D0000023FB604FF480633B6100237B613B1D68
:1021E0000221184602F090FA0346002B01D000F0BD
:1021F00091F900BF4037BD4680BD000080B500AFFB
:10220000124B134A1A60114B124A5A600F4B0022AC
:102210009A600E4BD022DA600C4B4FF480421A6168
:102220000A4B00225A61094B00229A61074B002297
:10223000DA61064B00221A62044800F047FF0346A9
:10224000002B01D000F066F900BF80BDA400002083
:1022500000540040A086010080B500AF094B0A4A37
:102260001A60084B04225A60064B40F6B8329A6056
:10227000044801F084FF0346002B01D000F04AF926
:1022800000BF80BDF80000200030004080B586B05F
:1022900000AF07F1080300221A605A609A60DA6002
:1022A0003B4600221A605A601F4B204A1A601E4BA0
:1022B00040F2CF225A601C4B00229A601A4B4FF614
:1022C000FF72DA60184B00221A61174B00225A6124
:1022D000154B80229A61144802F0A4FB0346002BA0
:1022E00001D000F017F94FF48053BB6007F10803E9
:1022F00019460D4802F0ECFD0346002B01D000F01A
:1023000009F900233B6000237B603B4619460648E1
:1023100003F04AF90346002B01D000F0FBF800BFA0
:102320001837BD4680BD00BF04010020002C0140CD
:1023300080B58EB000AF07F1280300221A605A6002
:102340009A60DA6007F1200300221A605A603B1D90
:1023500000221A605A609A60DA601A615A619A61C2
:102360003F4B4FF080421A603D4B47225A603C4B36
:1023700000229A603A4B44F6C062DA60384B002281
:102380001A61374B80229A61354802F04BFB0346B5
:10239000002B01D000F0BEF84FF48053BB6207F170
:1023A000280319462E4802F093FD0346002B01D066
:1023B00000F0B0F82A4802F0CFFB0346002B01D012
:1023C00000F0A8F800233B6200237B6207F12003A2
:1023D0001946234803F0E8F80346002B01D000F02B
:1023E00099F860237B604FF47A73BB600023FB6035
:1023F00000237B613B1D00221946194802F0A6FC10
:102400000346002B01D000F085F80023BB603B1D84
:1024100004221946124802F099FC0346002B01D011
:1024200000F078F83B1D082219460D4802F08EFC9A
:102430000346002B01D000F06DF83B1D0C2219461D
:10244000074802F083FC0346002B01D000F062F83D
:10245000034800F017F900BF3837BD4680BD00BF04
:102460004C01002080B500AF114B124A1A60104B8E
:102470004FF416525A600E4B00229A600C4B002209
:10248000DA600B4B00221A61094B0C225A61084B8F
:1024900000229A61064B0022DA61054803F0E2F857
:1024A0000346002B01D000F035F800BF80BD00BF0F
:1024B000940100200038014080B485B000AF144B77
:1024C0009B69134A43F020039361114B9B6903F00E
:1024D0002003FB60FB680E4B9B690D4A43F0080329
:1024E00093610B4B9B6903F00803BB60BB68084B0F
:1024F0009B69074A43F004039361054B9B6903F012
:1025000004037B607B6800BF1437BD4680BC704706
:102510000010024080B400AF72B600BF00BFFDE7FC
:1025200080B485B000AF154B9B69144A43F001039A
:102530009361124B9B6903F00103BB60BB680F4BB7
:10254000DB690E4A43F08053D3610C4BDB6903F027
:1025500080537B607B680A4B5B68FB60FB6823F001
:10256000E063FB60FB6843F00073FB60044AFB68B8
:10257000536000BF1437BD4680BC70470010024056
:102580000000014080B58AB000AF786007F1140305
:1025900000221A605A609A60DA607B681B681D4AE4
:1025A000934232D11C4B9B691B4A43F00803936151
:1025B000194B9B6903F008033B613B694FF440737F
:1025C0007B611223BB6103233B6207F114031946AD
:1025D000124800F0F7FB124B5B687B627B6A43F0AA
:1025E000E0637B627B6A43F002037B620C4A7B6A96
:1025F0005360094BDB69084A43F40013D361064B6F
:10260000DB6903F40013FB60FB6800BF2837BD469D
:1026100080BD00BF0054004000100240000C01408B
:102620000000014080B485B000AF78607B681B6813
:10263000124A93420CD1124B9B69114A43F4006336
:1026400093610F4B9B6903F40063FB60FB6810E030
:102650007B681B68B3F1804F0BD1094BDB69084ADB
:1026600043F00103D361064BDB6903F00103BB6058
:10267000BB6800BF1437BD4680BC7047002C0140CA
:102680000010024080B58AB000AF786007F11403F3
:1026900000221A605A609A60DA607B681B68B3F1A6
:1026A000804F43D1234B9B69224A43F00803936137
:1026B000204B9B6903F008033B613B691D4B9B6901
:1026C0001C4A43F0040393611A4B9B6903F0040313
:1026D000FB60FB6840F608437B610223BB61022379
:1026E0003B6207F114031946134800F06BFB4FF4EB
:1026F00000437B610223BB6102233B6207F11403A9
:1027000019460E4800F05EFB0D4B5B687B627B6AEE
:1027100023F440737B627B6A43F0E0637B627B6AF5
:1027200043F440737B62064A7B6A536000BF2837DC
:10273000BD4680BD00100240000C01400008014071
:102740000000014080B58AB000AF786007F1140343
:1027500000221A605A609A60DA607B681B68264A19
:10276000934245D1254B9B69244A43F480439361AE
:10277000224B9B6903F480433B613B691F4B9B6980
:102780001E4A43F0080393611C4B9B6903F0080346
:10279000FB60FB6840237B610223BB6103233B6238
:1027A00007F114031946164800F00CFB80237B61E7
:1027B0000023BB610023FB6107F114031946104895
:1027C00000F000FB0F4B5B687B627B6A43F0E063C9
:1027D0007B627B6A43F004037B620A4A7B6A536034
:1027E00000220021252000F004FA252000F01DFA27
:1027F00000BF2837BD4680BD0038014000100240B0
:10280000000C01400000014080B400AF00BFFDE7B4
:1028100080B400AF00BFFDE780B400AF00BFFDE7AC
:1028200080B400AF00BFFDE780B400AF00BFFDE79C
:1028300080B400AF00BFBD4680BC704780B400AF1D
:1028400000BFBD4680BC704780B400AF00BFBD462E
:1028500080BC704780B500AF00F0B4F800BF80BD09
:1028600080B500AF024802F0A7FF00BF80BD00BFE7
:102870009401002080B586B000AF7860144A154BF3
:10288000D31A7B617B693B61134B1B68002B02D120
:10289000114B124A1A60104B1A687B6813443A694C
:1028A0009A4207D203F0CCFC03460C221A604FF088
:1028B000FF3309E0084B1B68FB60074B1A687B6815
:1028C0001344054A1360FB6818461837BD4680BD9F
:1028D0000050002000040000C8020020180400205E
:1028E00080B400AF00BFBD4680BC7047FFF7F8FF63
:1028F0000B480C490C4A002302E0D458C45004335E
:10290000C4188C42F9D3094A094C002301E0136032
:102910000432A242FBD303F099FCFFF749FB704756
:102920000000002088000020387300088800002084
:1029300018040020FEE7000080B500AF084B1B68BC
:10294000074A43F010031360032000F047F90F20FB
:1029500000F008F8FFF7E4FD0023184680BD00BF33
:102960000020024080B582B000AF7860124B1A6838
:10297000124B1B7819464FF47A73B3FBF1F3B2FB99
:10298000F3F3184600F05FF90346002B01D0012352
:102990000EE07B680F2B0AD8002279684FF0FF30D9
:1029A00000F027F9064A7B681360002300E001234A
:1029B00018460837BD4680BD1C00002024000020BA
:1029C0002000002080B400AF054B1B781A46054B51
:1029D0001B681344034A136000BFBD4680BC7047A8
:1029E00024000020CC02002080B400AF024B1B6802
:1029F0001846BD4680BC7047CC02002080B584B02C
:102A000000AF7860FFF7F0FFB8607B68FB60FB68A1
:102A1000B3F1FF3F05D00A4B1B781A46FB681344FD
:102A2000FB6000BFFFF7E0FF0246BB68D31AFA68FD
:102A30009A42F7D800BF00BF1037BD4680BD00BF27
:102A40002400002080B485B000AF78607B6803F07C
:102A50000703FB600C4BDB68BB60BA684FF6FF03F3
:102A60001340BB60FB681A02BB68134343F0BF63AB
:102A700043F40033BB60044ABB68D36000BF143723
:102A8000BD4680BC704700BF00ED00E080B400AFE1
:102A9000044BDB681B0A03F007031846BD4680BCE5
:102AA000704700BF00ED00E080B483B000AF034684
:102AB000FB7197F90730002B0BDBFB7903F01F024A
:102AC000064997F907305B09012000FA02F241F844
:102AD000232000BF0C37BD4680BC704700E100E0FA
:102AE00080B483B000AF03463960FB7197F90730BB
:102AF000002B0ADB3B68DAB20C4997F90730120168
:102B0000D2B20B4483F800230AE03B68DAB20849EA
:102B1000FB7903F00F03043B1201D2B20B441A7687
:102B200000BF0C37BD4680BC704700BF00E100E02D
:102B300000ED00E080B489B000AFF860B9607A6061
:102B4000FB6803F00703FB61FB69C3F10703042B78
:102B500028BF0423BB61FB690433062B02D9FB6940
:102B6000033B00E000237B614FF0FF32BB6902FAB8
:102B700003F3DA43BB681A407B699A404FF0FF3198
:102B80007B6901FA03F3D9437B680B401343184672
:102B90002437BD4680BC704780B582B000AF7860F6
:102BA0007B68013BB3F1807F01D301230FE00A4A28
:102BB0007B68013B53600F214FF0FF30FFF790FF20
:102BC000054B00229A60044B07221A600023184626
:102BD0000837BD4680BD00BF10E000E080B582B080
:102BE00000AF78607868FFF72DFF00BF0837BD465B
:102BF00080BD80B586B000AF0346B9607A60FB73D4
:102C000000237B61FFF742FF78617A68B9687869D1
:102C1000FFF790FF024697F90F3011461846FFF76D
:102C20005FFF00BF1837BD4680BD80B582B000AFE2
:102C30000346FB7197F907301846FFF735FF00BFD1
:102C40000837BD4680BD80B582B000AF7860786837
:102C5000FFF7A2FF034618460837BD4680BD80B483
:102C600085B000AF78600023FB737B6893F8213058
:102C7000DBB2022B08D07B6804229A637B680022B7
:102C800083F82020012320E07B681B681A687B689A
:102C90001B6822F00E021A607B681B681A687B684A
:102CA0001B6822F001021A607B681A6C7B68DB6B80
:102CB000012101FA02F25A607B68012283F8212087
:102CC0007B68002283F82020FB7B18461437BD4622
:102CD00080BC704780B584B000AF78600023FB7380
:102CE0007B6893F82130DBB2022B05D07B6804228D
:102CF0009A630123FB7351E07B681B681A687B6849
:102D00001B6822F00E021A607B681B681A687B68D9
:102D10001B6822F001021A607B681B68224A9342FA
:102D200029D07B681B68214A934222D07B681B68AC
:102D30001F4A93421AD07B681B681E4A934212D0E6
:102D40007B681B681C4A93420AD07B681B681B4A3D
:102D5000934202D14FF480130EE04FF080730BE0EA
:102D60004FF4803308E04FF4805305E04FF4807354
:102D700002E0102300E00123114A53607B68012226
:102D800083F821207B68002283F820207B685B6B1E
:102D9000002B03D07B685B6B78689847FB7B1846F9
:102DA0001037BD4680BD00BF080002401C00024035
:102DB0003000024044000240580002406C000240D3
:102DC0000000024080B48BB000AF7860396000230F
:102DD0007B6200233B6269E101227B6A02FA03F312
:102DE000FB613B681B68FA691340BB61BA69FB6908
:102DF0009A4240F058813B685B689A4A93425ED0A1
:102E0000984A934275D8984A934258D0964A93422A
:102E10006FD8964A934252D0944A934269D8944AC2
:102E200093424CD0924A934263D8924A934246D0FE
:102E3000904A93425DD8122B2AD8122B59D801A25E
:102E400052F823F0BF2E0008992E0008AB2E000880
:102E5000ED2E0008F32E0008F32E0008F32E0008D4
:102E6000F32E0008F32E0008F32E0008F32E0008BE
:102E7000F32E0008F32E0008F32E0008F32E0008AE
:102E8000F32E0008F32E0008A12E0008B52E00082E
:102E9000794A934213D02CE03B68DB683B6229E01F
:102EA0003B68DB6804333B6224E03B68DB68083343
:102EB0003B621FE03B68DB680C333B621AE03B6817
:102EC0009B68002B02D104233B6213E03B689B68A4
:102ED000012B05D108233B627B68FA691A6109E07E
:102EE00008233B627B68FA695A6103E000233B6276
:102EF00000E000BFBB69FF2B01D87B6801E07B6865
:102F000004337B61BB69FF2B02D87B6A9B0002E024
:102F10007B6A083B9B003B617B691A680F213B6918
:102F200001FA03F3DB431A40396A3B6901FA03F300
:102F30001A437B691A603B685B6803F08053002B7F
:102F400000F0B1804D4B9B694C4A43F00103936103
:102F50004A4B9B6903F00103BB60BB68484A7B6A2C
:102F60009B08023352F82330FB607B6A03F00303B3
:102F70009B000F2202FA03F3DB43FA681340FB6065
:102F80007B68404A934213D07B683F4A93420DD0FE
:102F90007B683E4A934207D07B683D4A934201D109
:102FA000032306E0042304E0022302E0012300E0FF
:102FB00000237A6A02F0030292009340FA681343F6
:102FC000FB602F497B6A9B080233FA6841F8232093
:102FD0003B685B6803F48013002B06D02D4B9A6886
:102FE0002C49BB6913438B6006E02A4B9A68BB6986
:102FF000DB43284913408B603B685B6803F4001394
:10300000002B06D0234BDA682249BB691343CB60FF
:1030100006E0204BDA68BB69DB431E491340CB60F6
:103020003B685B6803F40033002B06D0194B5A68E9
:103030001849BB6913434B6006E0164B5A68BB69DD
:10304000DB43144913404B603B685B6803F48033F7
:10305000002B21D00F4B1A680E49BB6913430B603C
:1030600021E000BF000032100000311000002210EB
:10307000000021100000121000001110001002408A
:103080000000014000080140000C01400010014018
:1030900000140140000401400B4B1A68BB69DB437C
:1030A000094913400B607B6A01337B623B681A68F5
:1030B0007B6A22FA03F3002B7FF48EAE00BF00BFC1
:1030C0002C37BD4680BC70470004014080B584B0F9
:1030D00000AF78607B68002B01D101232BE17B6876
:1030E00093F83D30DBB2002B06D17B68002283F8D9
:1030F0003C207868FFF746FA7B68242283F83D205D
:103100007B681B681A687B681B6822F001021A60E2
:103110007B681B681A687B681B6842F400421A606F
:103120007B681B681A687B681B6822F400421A607F
:1031300001F032FCF8607B685B68814A934207D8F3
:10314000FB68804A934294BF01230023DBB206E070
:10315000FB687D4A934294BF01230023DBB2002B1E
:1031600001D00123E7E0FB68784AA2FB03239B0C14
:10317000BB607B681B685B6823F03F017B681B6852
:10318000BA680A435A607B681B681B6A23F03F01D8
:103190007B685B686A4A934202D8BB68013309E0E6
:1031A000BB684FF4967202FB03F3694AA2FB032348
:1031B0009B0901337A6812680B4313627B681B68B2
:1031C000DB6923F44F4222F0FF027B685B685C49B5
:1031D0008B4219D8FB68591E7B685B685B00B1FBAA
:1031E000F3F3591C40F6FC730B40002B0AD0FB682C
:1031F000591E7B685B685B00B1FBF3F30133C3F3DB
:103200000B0351E004234FE07B689B68002B11D136
:10321000FB68581E7B6859680B465B000B44B0FB8B
:10322000F3F30133C3F30B03002B0CBF0123002383
:10323000DBB212E0FB68581E7B6859680B469B00A6
:103240000B4499000B44B0FBF3F30133C3F30B03BE
:10325000002B0CBF01230023DBB2002B01D0012384
:1032600022E07B689B68002B0ED1FB68581E7B68B0
:1032700059680B465B000B44B0FBF3F30133C3F317
:103280000B0343F400430FE0FB68581E7B6859684A
:103290000B469B000B4499000B44B0FBF3F3013346
:1032A000C3F30B0343F44043796809681343CB61CC
:1032B0007B681B681B6823F0C0017B68DA697B6848
:1032C0001B6A1A437B681B680A431A607B681B6889
:1032D0009B6823F4034323F0FF037A6811697A683B
:1032E000D26811437A6812680B4393607B681B684D
:1032F000DB6823F0FF017B685A697B689B691A438E
:103300007B681B680A43DA607B681B681A687B6805
:103310001B6842F001021A607B6800221A647B6815
:10332000202283F83D207B6800221A637B680022FC
:1033300083F83E20002318461037BD4680BD00BFED
:10334000A08601007F841E00FF083D0083DE1B4332
:10335000D34D621080B588B002AFF86008461146C0
:103360001A4603467B810B463B811346FB80FFF7E1
:103370003BFB7861FB6893F83D30DBB2202B40F0DB
:10338000D9807B690093192301226D49F86800F008
:10339000C1FC0346002B01D00223CCE0FB6893F86C
:1033A0003C30012B01D10223C5E0FB68012283F8E8
:1033B0003C20FB681B681B6803F00103012B07D04E
:1033C000FB681B681A68FB681B6842F001021A6000
:1033D000FB681B681A68FB681B6822F400621A60AD
:1033E000FB68212283F83D20FB68402283F83E20C1
:1033F000FB6800221A64FB683A6A5A62FB68BA8C5E
:103400005A85FB685B8D9AB2FB681A85FB684D4A4A
:10341000DA62F8883A8979897B690193BB6A0093FB
:103420000346F86800F0F8FA0346002B52D0012357
:1034300081E07A69B96AF86800F086FD0346002BDE
:103440000DD0FB681B6C042B07D1FB681B681A6846
:10345000FB681B6842F400721A6001236BE0FB6892
:103460005B6A1A78FB681B681A61FB685B6A5A1C06
:10347000FB685A62FB681B8D013B9AB2FB681A8598
:10348000FB685B8D9BB2013B9AB2FB685A85FB6877
:103490001B685B6903F00403042B1BD1FB681B8DC5
:1034A000002B17D0FB685B6A1A78FB681B681A61EF
:1034B000FB685B6A5A1CFB685A62FB681B8D013B08
:1034C0009AB2FB681A85FB685B8D9BB2013B9AB28E
:1034D000FB685A85FB681B8D002BAAD17A69B96AF3
:1034E000F86800F079FD0346002B0DD0FB681B6CDB
:1034F000042B07D1FB681B681A68FB681B6842F441
:1035000000721A60012316E0FB681B681A68FB68EA
:103510001B6842F400721A60FB68202283F83D2089
:10352000FB68002283F83E20FB68002283F83C20E1
:10353000002300E0022318461837BD4680BD00BFB7
:10354000020010000000FFFF80B58CB002AFF860F1
:10355000084611461A4603467B810B463B811346BB
:10356000FB8000233B62FFF73FFA7862FB6893F829
:103570003D30DBB2202B40F044827B6A009319235C
:1035800001228249F86800F0C5FB0346002B01D0F8
:10359000022337E2FB6893F83C30012B01D1022370
:1035A00030E2FB68012283F83C20FB681B681B6843
:1035B00003F00103012B07D0FB681B681A68FB6846
:1035C0001B6842F001021A60FB681B681A68FB68FE
:1035D0001B6822F400621A60FB68222283F83D20F7
:1035E000FB68402283F83E20FB6800221A64FB68D7
:1035F0003A6B5A62FB68BA8E5A85FB685B8D9AB249
:10360000FB681A85FB68624ADA62F8883A89798928
:103610007B6A0193BB6B00930346F86800F092FA53
:103620000346002B01D00123ECE1FB681B8D002B2E
:1036300013D10023FB61FB681B685B69FB61FB68BE
:103640001B689B69FB61FB69FB681B681A68FB6868
:103650001B6842F400721A60C0E1FB681B8D012BED
:103660001ED1FB681B681A68FB681B6822F4806225
:103670001A6072B600BF0023BB61FB681B685B6900
:10368000BB61FB681B689B69BB61BB69FB681B680E
:103690001A68FB681B6842F400721A6062B635E073
:1036A000FB681B8D022B1ED1FB681B681A68FB6828
:1036B0001B6842F400621A6072B600BF00237B618F
:1036C000FB681B685B697B61FB681B689B697B61AE
:1036D0007B69FB681B681A68FB681B6822F48062C0
:1036E0001A6062B612E0FB681B681A68FB681B6808
:1036F00042F480621A6000233B61FB681B685B69CF
:103700003B61FB681B689B693B613B6966E1FB6849
:103710001B8D032B00F21F81FB681B8D012B23D116
:103720007A6AB96BF86800F09FFC0346002B01D061
:10373000012367E1FB681B681A69FB685B6AD2B208
:103740001A70FB685B6A5A1CFB685A62FB681B8D27
:10375000013B9AB2FB681A85FB685B8D9BB2013B0B
:103760009AB2FB685A8539E1FB681B8D022B52D156
:103770007B6A0093BB6B00220649F86800F0CAFA26
:103780000346002B08D001233CE100BF02001000DB
:103790000000FFFF0400010072B600BFFB681B6859
:1037A0001A68FB681B6842F400721A60FB681B68A9
:1037B0001A69FB685B6AD2B21A70FB685B6A5A1CB2
:1037C000FB685A62FB681B8D013B9AB2FB681A8545
:1037D000FB685B8D9BB2013B9AB2FB685A8562B66F
:1037E00000BFFB681B681A69FB685B6AD2B21A707B
:1037F000FB685B6A5A1CFB685A62FB681B8D013BC5
:103800009AB2FB681A85FB685B8D9BB2013B9AB24A
:10381000FB685A85E2E07B6A0093BB6B00227B4920
:10382000F86800F077FA0346002B01D00123E9E0A5
:10383000FB681B681A68FB681B6822F480621A60C8
:1038400072B600BFFB681B681A69FB685B6AD2B27C
:103850001A70FB685B6A5A1CFB685A62FB681B8D16
:10386000013B9AB2FB681A85FB685B8D9BB2013BFA
:103870009AB2FB685A85664B1B68DB08654AA2FB57
:1038800003231A0A13469B001344DA00D31A3B623F
:103890003B6A013B3B623B6A002B18D1FB6800226C
:1038A0001A63FB68202283F83D20FB68002283F81E
:1038B0003E20FB681B6C43F02002FB681A6462B672
:1038C00000BFFB68002283F83C2001239AE0FB68DC
:1038D0001B685B6903F00403042BD9D1FB681B68E8
:1038E0001A68FB681B6842F400721A60FB681B6868
:1038F0001A69FB685B6AD2B21A70FB685B6A5A1C71
:10390000FB685A62FB681B8D013B9AB2FB681A8503
:10391000FB685B8D9BB2013B9AB2FB685A8562B62D
:1039200000BFFB681B681A69FB685B6AD2B21A7039
:10393000FB685B6A5A1CFB685A62FB681B8D013B83
:103940009AB2FB681A85FB685B8D9BB2013B9AB209
:10395000FB685A8542E07A6AB96BF86800F084FB2C
:103960000346002B01D001234CE0FB681B681A6959
:10397000FB685B6AD2B21A70FB685B6A5A1CFB6810
:103980005A62FB681B8D013B9AB2FB681A85FB6883
:103990005B8D9BB2013B9AB2FB685A85FB681B6842
:1039A0005B6903F00403042B18D1FB681B681A69D8
:1039B000FB685B6AD2B21A70FB685B6A5A1CFB68D0
:1039C0005A62FB681B8D013B9AB2FB681A85FB6843
:1039D0005B8D9BB2013B9AB2FB685A85FB681B8DDD
:1039E000002B7FF494AEFB68202283F83D20FB6817
:1039F000002283F83E20FB68002283F83C2000234D
:103A000000E0022318462837BD4680BD04000100AF
:103A10001C00002089B5F81480B588B002AFF860AA
:103A2000084611461A4603467B810B463B811346E6
:103A3000FB80FB681B681A68FB681B6842F4807295
:103A40001A607B6A00933B6A00224FF00111F8680C
:103A500000F060F90346002B0DD0FB681B681B6863
:103A600003F48073B3F5807F03D1FB684FF40072D9
:103A70001A6403235FE07B89DBB21A46FB681B688C
:103A800002F0FE021A617B6A3A6A2D49F86800F07A
:103A9000BBF90346002B01D001234CE000237B61DE
:103AA000FB681B685B697B61FB681B689B697B61CA
:103AB0007B697A6A396AF86800F046FA0346002B97
:103AC0000DD0FB681B6C042B07D1FB681B681A68C0
:103AD000FB681B6842F400721A6001232BE0FB882C
:103AE000012B05D13B89DAB2FB681B681A6121E022
:103AF0003B891B0A9BB2DAB2FB681B681A617A6ABF
:103B0000396AF86800F020FA0346002B0DD0FB68F4
:103B10001B6C042B07D1FB681B681A68FB681B68C9
:103B200042F400721A60012305E03B89DAB2FB68B7
:103B30001B681A61002318461837BD4680BD00BFB8
:103B40000200010080B588B002AFF8600846114657
:103B50001A4603467B810B463B811346FB80FB687C
:103B60001B681A68FB681B6842F480621A60FB6875
:103B70001B681A68FB681B6842F480721A607B6AD3
:103B800000933B6A00224FF00111F86800F0C2F880
:103B90000346002B0DD0FB681B681B6803F4807381
:103BA000B3F5807F03D1FB684FF400721A640323DE
:103BB000AAE07B89DBB21A46FB681B6802F0FE02B2
:103BC0001A617B6A3A6A5249F86800F01DF90346A7
:103BD000002B01D0012397E000237B61FB681B6869
:103BE0005B697B61FB681B689B697B617B697A6AA7
:103BF000396AF86800F0A8F90346002B0DD0FB687D
:103C00001B6C042B07D1FB681B681A68FB681B68D8
:103C100042F400721A60012376E0FB88012B05D183
:103C20003B89DAB2FB681B681A6121E03B891B0AF9
:103C30009BB2DAB2FB681B681A617A6A396AF86863
:103C400000F082F90346002B0DD0FB681B6C042B9F
:103C500007D1FB681B681A68FB681B6842F4007296
:103C60001A60012350E03B89DAB2FB681B681A61D5
:103C70007A6A396AF86800F067F90346002B0DD0BC
:103C8000FB681B6C042B07D1FB681B681A68FB6878
:103C90001B6842F400721A60012335E0FB681B6860
:103CA0001A68FB681B6842F480721A607B6A009392
:103CB0003B6A00224FF00111F86800F02BF8034630
:103CC000002B0DD0FB681B681B6803F48073B3F5F1
:103CD000807F03D1FB684FF400721A64032313E062
:103CE0007B89DBB243F00103DAB2FB681B681A611F
:103CF0007B6A3A6A0649F86800F086F80346002BAA
:103D000001D0012300E0002318461837BD4680BDCE
:103D10000200010080B584B000AFF860B9603B607C
:103D20001346FB7148E03B68B3F1FF3F44D0FEF718
:103D30005BFE0246BB69D31A3A689A4202D33B68DB
:103D4000002B39D1BB681B0CDBB2012B0DD1FB68FA
:103D50001B685B69DA43BB6813409BB2002B0CBF46
:103D600001230023DBB21A460CE0FB681B689B6949
:103D7000DA43BB6813409BB2002B0CBF0123002326
:103D8000DBB21A46FB799A4216D1FB6800221A630D
:103D9000FB68202283F83D20FB68002283F83E2048
:103DA000FB681B6C43F02002FB681A64FB6800226E
:103DB00083F83C20012323E0BB681B0CDBB2012B02
:103DC0000DD1FB681B685B69DA43BB6813409BB28B
:103DD000002B0CBF01230023DBB21A460CE0FB686A
:103DE0001B689B69DA43BB6813409BB2002B0CBF76
:103DF00001230023DBB21A46FB799A4293D00023B9
:103E000018461037BD4680BD80B584B000AFF8605D
:103E1000B9607A603B6071E0FB681B685B6903F422
:103E20008063B3F5806F23D1FB681B681A68FB6859
:103E30001B6842F400721A60FB681B686FF48062B2
:103E40005A61FB6800221A63FB68202283F83D2038
:103E5000FB68002283F83E20FB681B6C43F00402E1
:103E6000FB681A64FB68002283F83C20012367E0AA
:103E70007B68B3F1FF3F41D0FEF7B6FD02463B68D9
:103E8000D31A7A689A4202D37B68002B36D1BB687A
:103E90001B0CDBB2012B0CD1FB681B685B69DA439E
:103EA000BB6813409BB2002B14BF01230023DBB27D
:103EB0000BE0FB681B689B69DA43BB6813409BB24D
:103EC000002B14BF01230023DBB2002B16D0FB68AC
:103ED00000221A63FB68202283F83D20FB68002241
:103EE00083F83E20FB681B6C43F02002FB681A64D9
:103EF000FB68002283F83C20012321E0BB681B0CF7
:103F0000DBB2012B0CD1FB681B685B69DA43BB6831
:103F100013409BB2002B14BF01230023DBB20BE044
:103F2000FB681B689B69DA43BB6813409BB2002B9C
:103F300014BF01230023DBB2002B7FF46DAF0023FD
:103F400018461037BD4680BD80B584B000AFF8601C
:103F5000B9607A6034E0F86800F0E3F80346002BBB
:103F600001D0012334E0BB68B3F1FF3F28D0FEF756
:103F70003BFD02467B68D31ABA689A4202D3BB68FB
:103F8000002B1DD1FB681B685B6903F08003802B4D
:103F900016D0FB6800221A63FB68202283F83D20BC
:103FA000FB68002283F83E20FB681B6C43F0200274
:103FB000FB681A64FB68002283F83C20012307E0B9
:103FC000FB681B685B6903F08003802BC3D100236F
:103FD00018461037BD4680BD80B584B000AFF8608C
:103FE000B9607A6034E0F86800F09BF80346002B73
:103FF00001D0012334E0BB68B3F1FF3F28D0FEF7C6
:10400000F3FC02467B68D31ABA689A4202D3BB68B3
:10401000002B1DD1FB681B685B6903F00403042BB4
:1040200016D0FB6800221A63FB68202283F83D202B
:10403000FB68002283F83E20FB681B6C43F02002E3
:10404000FB681A64FB68002283F83C20012307E028
:10405000FB681B685B6903F00403042BC3D10023D6
:1040600018461037BD4680BD80B584B000AFF860FB
:10407000B9607A6049E0FB681B685B6903F0100374
:10408000102B19D1FB681B686FF010025A61FB6896
:1040900000221A63FB68202283F83D20FB6800227F
:1040A00083F83E20FB681A6CFB681A64FB680022E8
:1040B00083F83C20012330E0FEF796FC02467B6843
:1040C000D31ABA689A4202D3BB68002B1DD1FB6891
:1040D0001B685B6903F04003402B16D0FB6800228D
:1040E0001A63FB68202283F83D20FB68002283F8D6
:1040F0003E20FB681B6C43F02002FB681A64FB68DF
:10410000002283F83C20012307E0FB681B685B6901
:1041100003F04003402BAED1002318461037BD46B4
:1041200080BD80B483B000AF78607B681B685B693A
:1041300003F48063B3F5806F1BD17B681B686FF459
:1041400080625A617B6800221A637B68202283F8B0
:104150003D207B68002283F83E207B681B6C43F087
:1041600004027B681A647B68002283F83C200123E8
:1041700000E0002318460C37BD4680BC704780B570
:1041800084B000AF78607B68002B01D1012334E05C
:104190007B681B684CF6CC421A607B681B6845F252
:1041A00055521A607B681B687A6852685A607B684F
:1041B0001B687A6892689A60FEF716FCF8600FE058
:1041C000FEF712FC0246FB68D31A272B08D97B683E
:1041D0001B68DB6803F00303002B01D003230CE012
:1041E0007B681B68DB6803F00303002BE8D17B6866
:1041F0001B684AF6AA221A60002318461037BD46EB
:1042000080BD000080B586B000AF78607B68002B71
:1042100001D1012372E27B681B6803F00103002BCC
:1042200000F08780924B5B6803F00C03042B0CD0EA
:104230008F4B5B6803F00C03082B12D18C4B5B682F
:1042400003F48033B3F5803F0BD1894B1B6803F433
:104250000033002B6CD07B685B68002B68D1012396
:104260004CE27B685B68B3F5803F06D1804B1B68EE
:104270007F4A43F4803313602EE07B685B68002B39
:104280000CD17B4B1B687A4A23F480331360784B44
:104290001B68774A23F4802313601DE07B685B680A
:1042A000B3F5A02F0CD1724B1B68714A43F48023E5
:1042B00013606F4B1B686E4A43F4803313600BE04E
:1042C0006B4B1B686A4A23F480331360684B1B688E
:1042D000674A23F4802313607B685B68002B13D04C
:1042E000FEF782FB386108E0FEF77EFB02463B6981
:1042F000D31A642B01D9032300E25D4B1B6803F43E
:104300000033002BF0D014E0FEF76EFB386108E0BC
:10431000FEF76AFB02463B69D31A642B01D90323DB
:10432000ECE1534B1B6803F40033002BF0D100E0A9
:1043300000BF7B681B6803F00203002B63D04C4B6B
:104340005B6803F00C03002B0BD0494B5B6803F058
:104350000C03082B1CD1464B5B6803F48033002B05
:1043600016D1434B1B6803F00203002B05D07B687A
:104370001B69012B01D00123C0E13D4B1B6823F0D9
:10438000F8027B685B69DB00394913430B603AE054
:104390007B681B69002B20D0364B01221A60FEF788
:1043A00023FB386108E0FEF71FFB02463B69D31A86
:1043B000022B01D90323A1E12D4B1B6803F002035B
:1043C000002BF0D02A4B1B6823F0F8027B685B6956
:1043D000DB00274913430B6015E0264B00221A60CF
:1043E000FEF702FB386108E0FEF7FEFA02463B6981
:1043F000D31A022B01D9032380E11D4B1B6803F064
:104400000203002BF0D17B681B6803F00803002B2C
:104410003AD07B689B69002B19D0174B01221A6098
:10442000FEF7E2FA386108E0FEF7DEFA02463B6981
:10443000D31A022B01D9032360E10D4B5B6A03F011
:104440000203002BF0D0012000F0CEFA1CE00A4B52
:1044500000221A60FEF7C8FA38610FE0FEF7C4FACE
:1044600002463B69D31A022B08D9032346E100BF59
:10447000001002400000424280044242924B5B6ABC
:1044800003F00203002BE9D17B681B6803F00403EF
:10449000002B00F0A6800023FB758B4BDB6903F03B
:1044A0008053002B0DD1884BDB69874A43F0805342
:1044B000D361854BDB6903F08053BB60BB6801238C
:1044C000FB75824B1B6803F48073002B18D17F4B64
:1044D0001B687E4A43F480731360FEF785FA3861E7
:1044E00008E0FEF781FA02463B69D31A642B01D932
:1044F000032303E1754B1B6803F48073002BF0D09A
:104500007B68DB68012B06D16F4B1B6A6E4A43F058
:10451000010313622DE07B68DB68002B0CD16A4B32
:104520001B6A694A23F001031362674B1B6A664AE0
:1045300023F0040313621CE07B68DB68052B0CD1BD
:10454000614B1B6A604A43F0040313625E4B1B6AB3
:104550005D4A43F0010313620BE05B4B1B6A5A4A4E
:1045600023F001031362584B1B6A574A23F00403DC
:1045700013627B68DB68002B15D0FEF735FA3861D3
:104580000AE0FEF731FA02463B69D31A41F288325B
:10459000934201D90323B1E04B4B1B6A03F00203A2
:1045A000002BEED014E0FEF71FFA38610AE0FEF7A8
:1045B0001BFA02463B69D31A41F28832934201D971
:1045C00003239BE0404B1B6A03F00203002BEED158
:1045D000FB7D012B05D13C4BDB693B4A23F080532B
:1045E000D3617B68DB69002B00F08780364B5B680A
:1045F00003F00C03082B61D07B68DB69022B46D1EA
:10460000334B00221A60FEF7EFF9386108E0FEF73D
:10461000EBF902463B69D31A022B01D903236DE063
:10462000294B1B6803F00073002BF0D17B681B6AD9
:10463000B3F5803F08D1244B5B6823F400327B68DC
:104640009B68214913434B601F4B5B6823F4741232
:104650007B68196A7B685B6A0B431B4913434B6099
:104660001B4B01221A60FEF7BFF9386108E0FEF724
:10467000BBF902463B69D31A022B01D903233DE063
:10468000114B1B6803F00073002BF0D035E0104B8A
:1046900000221A60FEF7A8F9386108E0FEF7A4F9D5
:1046A00002463B69D31A022B01D9032326E0064BAD
:1046B0001B6803F00073002BF0D11EE07B68DB6900
:1046C000012B07D1012319E00010024000700040C7
:1046D000600042420B4B5B68FB60FB6803F4803276
:1046E0007B681B6A9A4206D1FB6803F470127B68F0
:1046F0005B6A9A4201D0012300E000231846183774
:10470000BD4680BD0010024080B584B000AF786027
:1047100039607B68002B01D10123D0E06A4B1B6814
:1047200003F007033A689A4210D9674B1B6823F0DD
:10473000070265493B6813430B60634B1B6803F03A
:1047400007033A689A4201D00123B8E07B681B68EE
:1047500003F00203002B20D07B681B6803F00403E6
:10476000002B05D0594B5B68584A43F4E063536013
:104770007B681B6803F00803002B05D0534B5B6874
:10478000524A43F460535360504B5B6823F0F0028D
:104790007B689B684D4913434B607B681B6803F043
:1047A0000103002B40D07B685B68012B07D1474B8E
:1047B0001B6803F40033002B15D101237FE07B68D5
:1047C0005B68022B07D1414B1B6803F00073002B81
:1047D00009D1012373E03D4B1B6803F00203002B5A
:1047E00001D101236BE0394B5B6823F003027B6846
:1047F0005B68364913434B60FEF7F6F8F8600AE051
:10480000FEF7F2F80246FB68D31A41F2883293426F
:1048100001D9032353E02D4B5B6803F00C027B6846
:104820005B689B009A42EBD1274B1B6803F00703A0
:104830003A689A4210D2244B1B6823F0070222499F
:104840003B6813430B60204B1B6803F007033A6877
:104850009A4201D0012332E07B681B6803F0040315
:10486000002B08D0194B5B6823F4E0627B68DB689F
:10487000164913434B607B681B6803F00803002B49
:1048800009D0124B5B6823F460527B681B69DB0024
:104890000E4913434B6000F021F802460B4B5B6856
:1048A0001B0903F00F030A49CB5C22FA03F3094A00
:1048B0001360094B1B681846FEF754F8002318468E
:1048C0001037BD4680BD00BF0020024000100240EE
:1048D000547200081C0000202000002080B487B023
:1048E00000AF0023FB600023BB6000237B6100233B
:1048F0007B6000233B611E4B5B68FB60FB6803F041
:104900000C03042B02D0082B03D027E0194B3B618A
:1049100027E0FB689B0C03F00F03174AD35C7B6016
:10492000FB6803F48033002B10D0114B5B685B0CE9
:1049300003F00103114AD35CBB607B680D4A03FBA3
:1049400002F2BB68B2FBF3F37B6104E07B680C4AC4
:1049500002FB03F37B617B693B6102E0054B3B613A
:1049600000BF3B6918461C37BD4680BC704700BF7E
:104970000010024000127A006C7200087C7200087D
:1049800000093D0080B400AF024B1B681846BD46CD
:1049900080BC70471C00002080B500AFFFF7F2FF1D
:1049A0000246054B5B681B0A03F007030349CB5C17
:1049B00022FA03F3184680BD00100240647200081A
:1049C00080B500AFFFF7DEFF0246054B5B68DB0AF0
:1049D00003F007030349CB5C22FA03F3184680BDBA
:1049E000001002406472000880B485B000AF7860A7
:1049F0000A4B1B680A4AA2FB03235B0A7A6802FB84
:104A000003F3FB6000BFFB685A1EFA60002BF9D16C
:104A100000BF00BF1437BD4680BC70471C0000209B
:104A2000D34D621080B582B000AF78607B68002BF8
:104A300001D1012341E07B6893F83D30DBB2002BCC
:104A400006D17B68002283F83C207868FDF7EAFDF8
:104A50007B68022283F83D207B681A687B680433F8
:104A60001946104600F0FCFA7B68012283F84620C4
:104A70007B68012283F83E207B68012283F83F2077
:104A80007B68012283F840207B68012283F8412063
:104A90007B68012283F842207B68012283F843204F
:104AA0007B68012283F844207B68012283F845203B
:104AB0007B68012283F83D20002318460837BD4655
:104AC00080BD000080B485B000AF78607B6893F84B
:104AD0003D30DBB2012B01D0012332E07B680222A2
:104AE00083F83D207B681B68184A93420ED07B6890
:104AF0001B68B3F1804F09D07B681B68144A93424E
:104B000004D07B681B68134A934211D17B681B68F1
:104B10009B6803F00703FB60FB68062B10D07B68E3
:104B20001B681A687B681B6842F001021A6007E084
:104B30007B681B681A687B681B6842F001021A6078
:104B4000002318461437BD4680BC7047002C014036
:104B5000000400400008004080B582B000AF7860DB
:104B60007B68002B01D1012341E07B6893F83D3045
:104B7000DBB2002B06D17B68002283F83C207868EA
:104B800000F039F87B68022283F83D207B681A68C0
:104B90007B6804331946104600F062FA7B680122F4
:104BA00083F846207B68012283F83E207B6801223F
:104BB00083F83F207B68012283F840207B68012234
:104BC00083F841207B68012283F842207B68012220
:104BD00083F843207B68012283F844207B6801220C
:104BE00083F845207B68012283F83D200023184686
:104BF0000837BD4680BD80B483B000AF786000BF89
:104C00000C37BD4680BC704780B584B000AF78607B
:104C100039603B68002B09D17B6893F83E30DBB2EA
:104C2000012B14BF01230023DBB222E03B68042BDD
:104C300009D17B6893F83F30DBB2012B14BF01230D
:104C40000023DBB215E03B68082B09D17B6893F8A1
:104C50004030DBB2012B14BF01230023DBB208E09C
:104C60007B6893F84130DBB2012B14BF0123002392
:104C7000DBB2002B01D001235EE03B68002B04D1A6
:104C80007B68022283F83E2013E03B68042B04D1AA
:104C90007B68022283F83F200BE03B68082B04D19D
:104CA0007B68022283F8402003E07B68022283F8BD
:104CB00041207B681B6801223968184600F050FCCF
:104CC0007B681B681E4A934207D17B681B685A6C3D
:104CD0007B681B6842F400425A647B681B68184A70
:104CE00093420ED07B681B68B3F1804F09D07B687C
:104CF0001B68144A934204D07B681B68124A934293
:104D000011D17B681B689B6803F00703FB60FB689D
:104D1000062B10D07B681B681A687B681B6842F002
:104D200001021A6007E07B681B681A687B681B68D1
:104D300042F001021A60002318461037BD4680BDBC
:104D4000002C0140000400400008004080B586B0FF
:104D500000AFF860B9607A600023FB75FB6893F8D8
:104D60003C30012B01D10223AEE0FB68012283F825
:104D70003C207B680C2B00F29F8001A252F823F0AC
:104D8000B54D0008B94E0008B94E0008B94E0008EC
:104D9000F54D0008B94E0008B94E0008B94E00089C
:104DA000374E0008B94E0008B94E0008B94E000849
:104DB000774E0008FB681B68B968184600F0B2F926
:104DC000FB681B689A69FB681B6842F008029A61DD
:104DD000FB681B689A69FB681B6822F004029A61F1
:104DE000FB681B689969BB681A69FB681B680A4302
:104DF0009A6164E0FB681B68B968184600F0F8F92E
:104E0000FB681B689A69FB681B6842F400629A6140
:104E1000FB681B689A69FB681B6822F480629A61D0
:104E2000FB681B689969BB681B691A02FB681B68F1
:104E30000A439A6143E0FB681B68B968184600F0B2
:104E400041FAFB681B68DA69FB681B6842F00802DC
:104E5000DA61FB681B68DA69FB681B6822F00402F0
:104E6000DA61FB681B68D969BB681A69FB681B6853
:104E70000A43DA6123E0FB681B68B968184600F052
:104E80008BFAFB681B68DA69FB681B6842F40062F6
:104E9000DA61FB681B68DA69FB681B6822F48062D0
:104EA000DA61FB681B68D969BB681B691A02FB6879
:104EB0001B680A43DA6102E00123FB7500BFFB684F
:104EC000002283F83C20FB7D18461837BD4680BD84
:104ED00080B584B000AF786039600023FB737B68D5
:104EE00093F83C30012B01D10223B4E07B6801220E
:104EF00083F83C207B68022283F83D207B681B6896
:104F00009B68BB60BB6823F07703BB60BB6823F47E
:104F10007F43BB607B681B68BA689A603B681B680C
:104F2000B3F5005F3ED0B3F5005F00F28780B3F5C4
:104F3000805F00F08680B3F5805F7FD8702B1AD039
:104F4000702B7BD8602B50D0602B77D8502B3CD067
:104F5000502B73D8402B58D0402B6FD8302B64D0B7
:104F6000302B6BD8202B60D0202B67D8002B5CD047
:104F7000102B5AD062E07B6818683B6899683B68E0
:104F80005A683B68DB6800F0CCFA7B681B689B685A
:104F9000BB60BB6843F07703BB607B681B68BA6883
:104FA0009A604FE07B6818683B6899683B685A686C
:104FB0003B68DB6800F0B5FA7B681B689A687B6821
:104FC0001B6842F480429A603CE07B6818683B684A
:104FD00059683B68DB681A4600F02CFA7B681B684E
:104FE0005021184600F083FA2CE07B6818683B6873
:104FF00059683B68DB681A4600F04AFA7B681B6810
:105000006021184600F073FA1CE07B6818683B6862
:1050100059683B68DB681A4600F00CFA7B681B682D
:105020004021184600F063FA0CE07B681A683B6880
:105030001B681946104600F05AFA03E00123FB737F
:1050400000E000BF7B68012283F83D207B680022DE
:1050500083F83C20FB7B18461037BD4680BD00001E
:1050600080B485B000AF786039607B681B68FB60F6
:105070007B68294A93420BD07B68B3F1804F07D0FD
:105080007B68264A934203D07B68254A934208D125
:10509000FB6823F07003FB603B685B68FA681343AE
:1050A000FB607B681C4A93420BD07B68B3F1804F56
:1050B00007D07B68194A934203D07B68184A934211
:1050C00008D1FB6823F44073FB603B68DB68FA6837
:1050D0001343FB60FB6823F080023B685B6913436A
:1050E000FB607B68FA681A603B689A687B68DA62E2
:1050F0003B681A687B689A627B68074A934203D1CF
:105100003B681A697B681A637B6801225A6100BF99
:105110001437BD4680BC7047002C0140000400409D
:105120000008004080B487B000AF786039607B68C9
:105130001B6A7B617B681B6A23F001027B681A6231
:105140007B685B683B617B689B69FB60FB6823F065
:105150007003FB60FB6823F00303FB603B681B6884
:10516000FA681343FB607B6923F002037B613B68B1
:105170009B687A6913437B617B681C4A93420CD11C
:105180007B6923F008037B613B68DB687A69134322
:105190007B617B6923F004037B617B68134A934244
:1051A00011D13B6923F480733B613B6923F40073A5
:1051B0003B613B685B693A6913433B613B689B69B0
:1051C0003A6913433B617B683A695A607B68FA68C5
:1051D0009A613B685A687B685A637B687A691A628D
:1051E00000BF1C37BD4680BC704700BF002C01408B
:1051F00080B487B000AF786039607B681B6A7B61E0
:105200007B681B6A23F010027B681A627B685B680C
:105210003B617B689B69FB60FB6823F4E043FB60B8
:10522000FB6823F44073FB603B681B681B02FA6851
:105230001343FB607B6923F020037B613B689B6821
:105240001B017A6913437B617B681D4A93420DD130
:105250007B6923F080037B613B68DB681B017A6913
:1052600013437B617B6923F040037B617B68144AB5
:10527000934213D13B6923F480633B613B6923F480
:1052800000633B613B685B699B003A6913433B6188
:105290003B689B699B003A6913433B617B683A69B1
:1052A0005A607B68FA689A613B685A687B689A63BF
:1052B0007B687A691A6200BF1C37BD4680BC7047A4
:1052C000002C014080B487B000AF786039607B6803
:1052D0001B6A7B617B681B6A23F480727B681A629D
:1052E0007B685B683B617B68DB69FB60FB6823F084
:1052F0007003FB60FB6823F00303FB603B681B68E3
:10530000FA681343FB607B6923F400737B613B689D
:105310009B681B027A6913437B617B681D4A934239
:105320000DD17B6923F400637B613B68DB681B0262
:105330007A6913437B617B6923F480637B617B68BB
:10534000144A934213D13B6923F480533B613B6978
:1053500023F400533B613B685B691B013A691343CB
:105360003B613B689B691B013A6913433B617B6866
:105370003A695A607B68FA68DA613B685A687B6808
:10538000DA637B687A691A6200BF1C37BD4680BC4D
:10539000704700BF002C014080B487B000AF786038
:1053A00039607B681B6A3B617B681B6A23F480520F
:1053B0007B681A627B685B687B617B68DB69FB608A
:1053C000FB6823F4E043FB60FB6823F44073FB605D
:1053D0003B681B681B02FA681343FB603B6923F4BC
:1053E00000533B613B689B681B033A6913433B6175
:1053F0007B680F4A934209D17B6923F480437B6128
:105400003B685B699B017A6913437B617B687A69BE
:105410005A607B68FA68DA613B685A687B681A648C
:105420007B683A691A6200BF1C37BD4680BC704772
:10543000002C014080B487B000AFF860B9607A609A
:10544000FB681B6A7B61FB681B6A23F00102FB6837
:105450001A62FB689B693B613B6923F0F0033B6187
:105460007B681B013A6913433B617B6923F00A03A4
:105470007B617A69BB6813437B61FB683A699A6117
:10548000FB687A691A6200BF1C37BD4680BC704752
:1054900080B487B000AFF860B9607A60FB681B6ABF
:1054A0007B61FB681B6A23F01002FB681A62FB68D1
:1054B0009B693B613B6923F470433B617B681B0341
:1054C0003A6913433B617B6923F0A0037B61BB68AE
:1054D0001B017A6913437B61FB683A699A61FB6837
:1054E0007A691A6200BF1C37BD4680BC704780B421
:1054F00085B000AF786039607B689B68FB60FB68B3
:1055000023F07003FB603A68FB68134343F0070322
:10551000FB607B68FA689A6000BF1437BD4680BCA8
:10552000704780B487B000AFF860B9607A603B60C4
:10553000FB689B687B617B6923F47F437B613B68ED
:105540001A027B681A43BB6813437A6913437B6171
:10555000FB687A699A6000BF1C37BD4680BC704703
:1055600080B487B000AFF860B9607A60BB6803F0C0
:105570001F03012202FA03F37B61FB681A6A7B694D
:10558000DB431A40FB681A62FB681A6ABB6803F0C7
:105590001F03796801FA03F31A43FB681A6200BF1C
:1055A0001C37BD4680BC704780B485B000AF7860C2
:1055B00039607B6893F83C30012B01D1022346E02F
:1055C0007B68012283F83C207B68022283F83D201F
:1055D0007B681B685B68FB607B681B689B68BB60C3
:1055E000FB6823F07003FB603B681B68FA68134399
:1055F000FB607B681B68FA685A607B681B68164A08
:1056000093420ED07B681B68B3F1804F09D07B6852
:105610001B68124A934204D07B681B68104A93426D
:105620000CD1BB6823F08003BB603B685B68BA6841
:105630001343BB607B681B68BA689A607B68012271
:1056400083F83D207B68002283F83C200023184625
:105650001437BD4680BC7047002C01400004004058
:105660000008004080B582B000AF78607B68002BF6
:1056700001D1012342E07B6893F84130DBB2002B7B
:1056800006D17B68002283F840207868FDF75AF83D
:105690007B68242283F841207B681B68DA687B687A
:1056A0001B6822F40052DA60786800F0FFFC7B6827
:1056B0001B681A697B681B6822F490421A617B6838
:1056C0001B685A697B681B6822F02A025A617B6852
:1056D0001B68DA687B681B6842F40052DA607B68FA
:1056E00000225A647B68202283F841207B682022B4
:1056F00083F842207B6800225A630023184608374B
:10570000BD4680BD80B485B000AFF860B960134677
:10571000FB80FB6893F84130DBB2202B21D1BB68C2
:10572000002B02D0FB88002B01D101231AE0FB687B
:10573000BA681A62FB68FA889A84FB68FA88DA8485
:10574000FB6800225A64FB68212283F84120FB6831
:105750001B68DA68FB681B6842F08002DA6000238D
:1057600000E0022318461437BD4680BC704780B560
:1057700084B000AFF860B9601346FB80FB6893F813
:105780004230DBB2202B12D1BB68002B02D0FB8849
:10579000002B01D101230BE0FB6800221A63FB8878
:1057A0001A46B968F86800F0ADFA034600E0022333
:1057B00018461037BD4680BD80B5BAB000AF7860DE
:1057C0007B681B681B68C7F8E4307B681B68DB6874
:1057D000C7F8E0307B681B685B69C7F8DC300023E2
:1057E000C7F8D8300023C7F8D430D7F8E43003F036
:1057F0000F03C7F8D830D7F8D830002B0FD1D7F81F
:10580000E43003F02003002B09D0D7F8E03003F098
:105810002003002B03D0786800F08AFB5BE2D7F806
:10582000D830002B00F0DE80D7F8DC3003F0010325
:10583000002B06D1D7F8E03003F49073002B00F072
:10584000D180D7F8E43003F00103002B0BD0D7F858
:10585000E03003F48073002B05D07B685B6C43F071
:1058600001027B685A64D7F8E43003F00403002B8C
:105870000BD0D7F8DC3003F00103002B05D07B6898
:105880005B6C43F002027B685A64D7F8E43003F0A3
:105890000203002B0BD0D7F8DC3003F00103002B00
:1058A00005D07B685B6C43F004027B685A64D7F8D0
:1058B000E43003F00803002B11D0D7F8E03003F0F8
:1058C0002003002B05D1D7F8DC3003F00103002BB7
:1058D00005D07B685B6C43F008027B685A647B6888
:1058E0005B6C002B00F0F281D7F8E43003F020036A
:1058F000002B08D0D7F8E03003F02003002B02D0B3
:10590000786800F015FB7B681B685B6903F0400357
:10591000002B14BF01230023DBB2C7F8D4307B680F
:105920005B6C03F00803002B03D1D7F8D430002BB5
:105930004FD0786800F01FFA7B681B685B6903F042
:105940004003002B41D07B681B681433C7F89C30A0
:10595000D7F89C3053E8003FC7F89830D7F8983014
:1059600023F04003C7F8D0307B681B681433D7F8A6
:10597000D020C7F8A820C7F8A430D7F8A410D7F8CB
:10598000A82041E80023C7F8A030D7F8A030002BAA
:10599000D9D17B68DB6B002B13D07B68DB6B7E4A35
:1059A0005A637B68DB6B1846FDF794F90346002BBE
:1059B00016D07B68DB6B5B6B7A68D26B10469847BE
:1059C0000EE0786800F08AF90AE0786800F086F95D
:1059D00006E0786800F082F97B6800225A6475E17D
:1059E00000BF73E17B681B6B012B40F04F81D7F840
:1059F000E43003F01003002B00F04881D7F8E030CA
:105A000003F01003002B00F041810023BB607B6892
:105A10001B681B68BB607B681B685B68BB60BB68FE
:105A20007B681B685B6903F04003002B00F0B680C5
:105A30007B68DB6B1B685B68A7F8BE30B7F8BE30CD
:105A4000002B00F045817B689B8DB7F8BE209A4201
:105A500080F03E817B68B7F8BE20DA857B68DB6B1F
:105A60009B69202B00F088807B681B680C33C7F88B
:105A70008830D7F8883053E8003FC7F88430D7F82B
:105A8000843023F48073C7F8B8307B681B680C330C
:105A9000D7F8B820C7F89420C7F89030D7F89010FE
:105AA000D7F8942041E80023C7F88C30D7F88C3021
:105AB000002BD9D17B681B6814337B677B6F53E85D
:105AC000003F3B673B6F23F00103C7F8B4307B68AE
:105AD0001B681433D7F8B420C7F88020FB67F96F30
